:020000021000EC
:1080000000400020D5BC01001DBD01001FBD0100C6
:108010000000000000000000000000000000000060
:1080200000000000000000000000000021BD010071
:10803000000000000000000023BD010025BD01007C
:1080400027BD010027BD0100558A0100F58C010004
:1080500027BD01000000000029870100FD8D0100FF
:1080600027BD0100D98801003188010027BD01002A
:1080700027BD010027BD010027BD010027BD01006C
:1080800027BD01002DB0010027BD010027BD010063
:108090000DB1010027BD0100CDB6010027BD0100D3
:1080A00027BD010027BD0100000000000000000006
:1080B00000000000000000000000000000000000C0
:1080C00010B5064C2378002B07D1054B002B02D0AE
:1080D000044800E000BF0123237010BDA820002049
:1080E000000000004C180200084B10B5002B03D014
:1080F0000749084800E000BF07480368002B00D18B
:1081000010BD064B002BFBD09847F9E7000000009C
:10811000AC2000204C180200A82000200000000025
:10812000164B002B00D1144B9D46402292029A1A06
:10813000924600218B460F461348144A121A00F04B
:1081400067F80F4B002B00D098470E4B002B00D048
:1081500098470020002104000D000D48002802D09F
:108160000C4800E000BF00F02DF82000290000F0CE
:1081700039F900F011F8C046000008000040002066
:108180000000000000000000A8200020C8240020FB
:108190000000000000000000084B10B50400002B98
:1081A00002D0002100E000BF054B1868836A002B55
:1081B00000D09847200000F033F8C04600000000CF
:1081C000D40402000E4B70B500251E000D4CE41ABD
:1081D000A410A54204D0AB00F35898470135F8E746
:1081E00008F06AF9084B00251E00084CE41AA41098
:1081F000A54204D0AB00F35898470135F8E770BDAD
:10820000A0200020A0200020A0200020A4200020EA
:1082100003008218934202D019700133FAE77047C5
:10822000FEE7C0461D4B1B78012B00D070471C4B4E
:108230001B681B07FAD1F0221A4B1B68134018D198
:10824000194B1B6813421CD0154B1B681B07EDD143
:10825000F022144B1B681340402BE7D1124B1B68D4
:108260001342E3D1C12380220121DB00D205D1508A
:10827000DCE7102B01D0302BEAD10B4B1B681342EB
:10828000E6D10A4A0A4B1A6080220A4B12021A608F
:10829000024B1B78012BD7D0C8E7C046E00F00F097
:1082A000E40F00F0E80F00F0EC0F00F0DFFF07C074
:1082B00004050040186C004082B00190019B002B27
:1082C00014D0019B0A48013B01930138C046C046C7
:1082D000C046C046C046C046C046C046C046C0466E
:1082E000C046C046F1D1019B002BEAD102B07047D5
:1082F000E70300001B38C0B210B55C284BD8334BE5
:1083000080001B589F46324A53880A33538010BD61
:108310000122304B1A70FAE72D4A13880A3B1BB230
:10832000002B50DB1380F2E7294A93880A3B1BB2EB
:10833000002B45DB9380EAE7254A93880A33938034
:10834000E5E7234AD3880A3B1BB2002B35DBD380F9
:10835000DDE70222204B1A70D9E701221E4B1A706A
:10836000D5E71B4A13880A331380D0E7184AD3880D
:108370000A33D380CBE7164A53880A3B1BB2002B43
:1083800018DB5380C3E70022134B1A70BFE77A2033
:1083900000F0FCFABBE7A0238021104ADB059A58C5
:1083A000C903520202D50E4A9950B0E7A122D20069
:1083B0009950ACE700235380A9E70023D380A6E7B8
:1083C00000239380A3E700231380A0E7D8040200D2
:1083D000B0240020BA24002014220020040500004C
:1083E0000C050000F0B55F4656464D464446002356
:1083F000F0B4774A774F83B03B70138000F06CFB8A
:1084000000F044F900F0ACF900F00AFD00F0A8FC1F
:108410006421012002F026FD00F0F2FD00F0F4FFDF
:1084200000F008FE002800D1B5E06B4B00259B460C
:108430006A4BA9469A46A023DB059846684E694CCC
:10844000694B1B78002B3ED18222684B9B5C002B32
:1084500049D100F08FFA002824D04B461421484619
:108460005D1C04F08FFA00290BD14246604BD258B4
:108470008023DB051A4200D089E0A1224146D200C8
:108480008B5000F0AFFC00F0E9FC3B78002B44D0AF
:10849000012B2ED0022B02D10122534B1A7000F077
:1084A0006FFAA94600F050F90028C9D03B78022B9A
:1084B000C6D002F095FC00F0C3F800F04BF94A4B2F
:1084C0001B78002BC0D003F02FF94A4807F08CF836
:1084D0006420FFF7F1FEBFF34F8F474A474BDA6046
:1084E000BFF34F8FFEE7414800F05EFBFFF702FF4E
:1084F000AFE701339C4628000521E14404F042FA2D
:108500004D460029CBD103F01DFB03F0F9F80028FC
:1085100045D13B4807F068F8C1E700F01BFA0100BD
:10852000384807F061F80422B35E0221725E9C466F
:108530000020315E0623F05E63460090324807F06B
:1085400053F8324B00229B5E314A0021525E314982
:108550000020095E304807F047F8304B00229B5E50
:108560002F4A0021525E2F490020095E2A4807F059
:108570003BF82D4B524619885B4612681B682B4806
:1085800007F032F839782A4807F02EF887E7414695
:10859000284A8B5075E7284807F026F845E7E17828
:1085A000A278090211432279A37912040A43110027
:1085B00099466279237AE07912060A431B0204493C
:1085C000184309884B4600901C4807F00DF866E7F1
:1085D0009E2200201422002010220020DC210020F6
:1085E000B0240020E0210020BA24002054210020E3
:1085F00004050000F80602000400FA0500ED00E0A2
:10860000B406020064060200700602004E2100203B
:108610000E220020D821002084060200B824002069
:10862000A022002028240020A2220020940602007C
:10863000A80602000C0500004C060200C806020055
:108640000E4AA8200023D15EFA239B009C460C4BC7
:108650006144C00019500220115E0A48614419505B
:108660000420115E604661306144FF3019500621DC
:10867000525E054962445A507047C046B0240020FB
:1086800000900040440500004C050000A02300219C
:108690001C4ADB0510B59950A2211B4A1B48C90092
:1086A0005050C121012089005050C0224024184858
:1086B000520084504458174A2240C02424042243C4
:1086C0004250032214495A5014495A5014495A50DE
:1086D00014495A501C395A5008315A5010315A50C6
:1086E00008315A50A1228021D200C903995080211B
:1086F000490499508021490599508021C905995014
:1087000010BDC046140700000060004001050200D3
:1087100000E100E0FFFF00FF540700005C070000DD
:1087200064070000740700008023054A5B00D158ED
:10873000002904D00021D1500122024B1A70704749
:1087400000600040C4200020014B18787047C046EC
:10875000C42000200022014B1A707047C420002062
:10876000F0B54746002380B4A227254AFF001360D6
:10877000244AA8261370244A0433D3519C46C123AB
:108780009B009846E0234146A924DB0253506046F3
:1087900001211E4BF60093511D4D1E4BE400535119
:1087A0001D4B13511D4BD160D851F02740463F035C
:1087B0001F50E430985158511851194CC025185188
:1087C000D96011601960C221164B4D3C6D00FF3C11
:1087D0005C5189005858144A0240C02000040243EA
:1087E000802080005A5058515D58104A2A40C025B8
:1087F0002D022A435A501C60186004BC9046F0BDFC
:10880000C8200020C520002000A00040C4090000AE
:108810004405000050C30000FFFF0000009000402E
:108820004C05000000E100E0FFFF00FFFF00FFFF3C
:10883000A02210B5204B5200995800291BD0A82027
:108840001E4CC000A44619588024614419500120D0
:108850001B49A403C860A020A121C005C900445041
:108860008024240444508024A40444508024A4057B
:10887000445000219950A2220F4B520099580029D0
:108880000AD0104C1048A4461958614419500120D0
:108890000E49087000219950A423074A5B00D15863
:1088A000002907D00A4C0B48A446016861440160C6
:1088B0000021D15010BDC04600A00040C4090000F6
:1088C0000090004050C3000044050000C520002077
:1088D000FFFF0000C8200020A02310B51B4A5B004A
:1088E000D158002907D08024A0201949A403C0052D
:1088F00044500021D150A223144A5B00D1580029D2
:1089000007D08024A02012492404C005445000212F
:10891000D150A4230D4A5B00D158002907D08024F0
:10892000A0200B49A404C00544500021D150A62327
:10893000064A5B00D158002907D08024A0200449B2
:10894000A405C00544500021D15010BD0090004046
:108950000C0500000122044BDA64044A9858044BC9
:108960001B68C0187047C04600A000404C050000BE
:10897000C8200020014B18787047C046C520002051
:108980000022014B1A707047C520002010B58023CB
:1089900004240A4AD4500A4B1A78002A08D000222C
:1089A0001A70084B084AD0500422044B1A6010BDBC
:1089B0000100064800F0EAF8F6E7C04600E100E0F2
:1089C000642000201C050000002000401822002028
:1089D000F0B55F4656464D464446F0B483B001922A
:1089E000002A24DD802399467C3B9246984600234A
:1089F0000C008A44124E134D04279B4609E05B4647
:108A0000114A3370114B0134D15043462B60544509
:108A10000DD04B462178EF503378002BEFD10C4826
:108A200000F0B4F8434601342B605445F1D101986D
:108A300003B03CBC90469946A246AB46F0BDC0464A
:108A40006420002000E100E0002000401C05000040
:108A500018220020842210B5194B52009958002981
:108A60001ED18E23164C5B00E258002A09D000224A
:108A70001448E2509A3BC35C002B1BD10122124BDD
:108A80001A7092220E4B52009958002907D00021EB
:108A900099509022D20099580C4806F0A5FD10BDBF
:108AA00000219950A322D20099580948C9B200F078
:108AB0006DF8D6E700F078F8064BE050E1E7C046E5
:108AC0000020004018220020642000200807020037
:108AD000542100201C05000010B51E4800F04CF881
:108AE0001D4800F049F8A023E7220321DB05D2004E
:108AF0009950E82100220E20C9005A50174B1849FE
:108B00005850184902305850174818495850A0205A
:108B10000421C0001950842040001A5014301A500B
:108B200001329A601A60C2221E38FF3892009850B3
:108B3000A120043A80009850C0230D4A5B00D15018
:108B40007C3014580B4B2340C0242404234313507F
:108B5000116010BD54210020182200200020004088
:108B60000C0500001405000000E0D70124050000FA
:108B700000E100E0FFFF00FF002380227F218354FB
:108B800001328154013283547047C046812210B5AE
:108B90007F24835C013323408354C1540132835CBE
:108BA0000133835410BDC046802110B57F240200DC
:108BB000435CC05C0133234053540231535C013B9E
:108BC000535410BDF0B557464E4645468446E0B472
:108BD00089469A460120002A3BD0B12300276146EE
:108BE000244E254D254CDB002F702770F15049464F
:108BF000234BF150802189007750B06029780029FB
:108C0000FCD000212970012A2ED08021012519488D
:108C1000890045500121174889460160802189005B
:108C20008846FF39A325FF39534600268C46ED00C0
:108C300021780029FCD026704159013AD2B219702E
:108C4000012A0BD049460162002A01D00133EFE727
:108C500000201CBC90469946A246F0BD414667469E
:108C6000013347500262E3E7802102250148890071
:108C70004550CFE700300040CC200020CD20002020
:108C80001C050000F0B5474680B407000120002A0B
:108C900027D00025B126A846134CF6002570134DA9
:108CA000AF5180274646BF00EE51114EA951A86032
:108CB00021780029FCD000210020013A2170D1B296
:108CC00001310A4E0A4D59181A7872512278002A39
:108CD000FCD0013320708B42F6D101220020034BDF
:108CE0005A6104BC9046F0BDCC200020003000400A
:108CF0001C050000F8B58423144A5B00D1580029F4
:108D000004D00021D1500122114B1A708E230F4A3A
:108D10005B00D158002904D00021D15001220D4B15
:108D20001A709225094C6D006359002B0CD00A4E25
:108D3000A759FFF70FFE39000200084806F054FC5F
:108D40000323A35100236351F8BDC0460030004007
:108D5000CD200020CC200020C40400001C0702000D
:108D6000A023E2211A4ADB05C90010B55A50083980
:108D70005A500421174B053AFF3A9950164A0239C6
:108D800099500022CD200731FF315A5014315A50EA
:108D90001249C0045850A120C121800089005850B8
:108DA0000539FF395A50A022FC39FF39D2009950B9
:108DB000C023C0240A4A03315B00D1507C301358D1
:108DC00024061B021B0A23431350116010BDC0462A
:108DD0000C060000003000400C05000024050000D7
:108DE00000E100E08022044BD2009A58002A01D111
:108DF00001321A607047C046007000408022002196
:108E0000054B52009950A122D2009A58D3009B1AC8
:108E1000024A13807047C04600700040A222002022
:108E20000A4B0B490B4AC0209950A0210122C900CE
:108E30005A50FD39FF395A50074A000653581B0251
:108E40001B0A034353508023136070470070004097
:108E5000041000000405000000E100E0F0B5474602
:108E600080B45B4C82B02578002D07D0012D1BD03B
:108E7000022D24D002B004BC9046F0BDB12277216F
:108E8000544BD20099508022753992009950524A21
:108E90004631995001229A602270FFF75BFD4F4BDB
:108EA00025781860012DE3D1FFF754FD4B4E336850
:108EB000C01A4B4B984268D82578022DDAD1FFF7BB
:108EC00049FD464B1B68C01A464B9842D2D9464DC5
:108ED00003222B0000217720FFF774FE2B7800215E
:108EE0001A046B781B021343AA78404D1343404A7F
:108EF00013606A89288912029B1A98461A00002377
:108F000003F0A8FE4E06CB110021C2093243AE8801
:108F1000300412184B41009201930021E888424628
:108F2000002303F097FE0E06020A32436E880B12EE
:108F3000F003002116001F00424636184F4100235F
:108F4000A889002103F086FEFA23DB009C46490233
:108F5000C00D0843274B60441860274B3200186847
:108F600000213B0003F076FECD02420D4B152A4353
:108F700000980199121A8B4111005B04CA0B1A4325
:108F80001E4B1A600023237074E7174F03223B0027
:108F900000217720FFF716FE3B7877211A047B78B3
:108FA00054201B021343BA781343134A1360B122AF
:108FB000084BD200995002228A31FF315A5006499B
:108FC00058509D602270FFF7C5FC2578306074E72B
:108FD000CE200020003000401C050000E8200020CA
:108FE0000F270000B70B0000E0200020D020002059
:108FF000BC240020DC210020C024002010220020FE
:1090000070B5A024094E0A4D2B00022221007720C2
:10901000FFF7D8FD2B786A781B0202341343E4B2C1
:1090200033800236B02CEFD170BDC046D020002076
:10903000E420002030B501252048214BA0221860F3
:10904000204BD205DB7A84249D401F4B6400D55011
:109050000023062203511D4B83B0C25084210359C3
:10906000164A4900002BF9D0A323DB00D358A020D7
:109070000093A123C005DB00C550009B0133009382
:10908000114BC550002360205350104BD050535803
:10909000002BFCD0A323094ADB00D358A022019364
:1090A000A123D205DB00D550019B6420013301933D
:1090B000FFF702F9012003B030BDC0460040004078
:1090C000F8200020EC2000200C0500001C0500000A
:1090D000F0B5564644465F464D4684460120F0B4FE
:1090E000874B884C92461C60874BA022DB7AD205C6
:1090F0009840864B8426D050002306227600A35148
:10910000834B87B0E250842252009346A2597D4B94
:10911000002AF8D0A324E4001A59A1260492A02220
:10912000AF27F600D2059051049E0136049603AE97
:10913000377067463F0CB846777067463F0AB946B6
:10914000B7706746F770002900D19EE057466D461C
:109150002F802F880197002F00D196E06B4F5D463E
:10916000D051002292465A5100940C005A46514662
:109170009B46A246745C664D5C519C58002CFCD00A
:1091800084275C4600257F00E551009D013164592C
:1091900005940429EED151464B1C5A4C9A460A7844
:1091A0005B4B2500E2503C0084222B59554E520067
:1091B000002BF9D00023B350A323DB00F358A025E4
:1091C0000593A123ED05DB00E8504B46FF201B0271
:1091D000000203406446FF2020401818FF26434643
:1091E00036041B0433401B1801985446013880B2E2
:1091F000013084460120824644488C448146AF2099
:10920000C9438046CB18424E00931420644544D095
:109210000138C046C046C046C046C046C046C046EB
:10922000C046C046C046C046C046F1D15146364B46
:109230004046DB7A99404B46E950314B1B689851C8
:1092400098580028FCD0002083465F460930FF3044
:109250001F50A320C00018580590207898519858A6
:109260000028FCD0002083465F460930FF301F50A5
:10927000A320C0001B5801340593A123DB00E95053
:10928000009B1919234B9942BFD9002007B03CBC61
:1092900090469946A246AB46F0BD0138C046C0464E
:1092A000C046C046C046C046C046C046C046C0468E
:1092B000C046C046F1D10120134BA022DB7A042125
:1092C0009840124BD205D0500D4B1A68104BD1501C
:1092D0000531FF315358002BFCD0842300215B0063
:1092E000D150A323DB00D358A0220593A123D2059C
:1092F000DB00D050059B012001330593C6E7C04633
:10930000F820002000400040EC2000200C05000068
:109310001C050000FEFF0100F0B544465F465646BE
:109320004D46F0B483B06C4603232370030C637086
:10933000030AE070A37092B20020002901D0002A35
:1093400006D103B03CBC90469946A246AB46F0BD60
:10935000284B294CA0272360284CFF05E57AA4461A
:109360000124AC40264D7C5184246400185118001F
:10937000244B00259A4600239846A323DB000700D0
:10938000A1469B466B4656465B5D83510359002BB5
:10939000FCD04B464646FE505B46FB5801350193D8
:1093A000042DEFD1174B8424A32698460027013AB9
:1093B00095B201350F484D196400F6004346C75079
:1093C00003590C4A002BFBD084235B00D7509359E0
:1093D0000B700131A942F1D16346DA7A0123A02151
:1093E0009340A122C905D2008B50019B012001337B
:1093F0000193A6E700400040F8200020EC20002068
:109400000C0500001C050000F0B55F4656464D46B1
:109410004446F0B489B006AD062200212800FEF7CC
:10942000F7FE40236B70353BAB70023BEB700933AA
:109430002B71013B6B71894B2900981D06229A46BE
:1094400006F0C9F8AB78032298464146A0230020D5
:10945000C131FF31DB058900CA50E978844689466D
:10946000C131FF318900CA50297944468B46C13148
:10947000FF318900C8506F79A12039004E46C131B3
:10948000FF318900CA507649C0000C50754C0E510E
:109490005E46A04604340E5101263400BC401C50E8
:1094A0006F78714C3F060F512F78704D64464F51C5
:1094B0008427543D7F00CC514E51E025ED005A5198
:1094C0006B4D5A51802292011E501A505246694DDE
:1094D0002960D27A964042469E505022664BCC512B
:1094E000CA508422C8595E4B52000028F9D0A321EB
:1094F000C9005958A0200191A121C005C9004650BA
:1095000001990127013101915649465000205A49DD
:1095100098505F5058508427995851487F0000292F
:10952000F9D00023C351A323DB00C3580293842244
:10953000C1594B4B52000029F9D0A321C9005958F9
:10954000A0200291A121C005C9004650029905271B
:1095500001310291434946500020474998505F50DD
:109560005850842799583E487F000029F9D000239D
:10957000C351A323DB00C3588421C259384B49008F
:10958000002AF9D0A322A027A120D2009A58C00017
:10959000FF05D2B23E500020002A06D009B03CBCE4
:1095A00090469946A246AB46F0BD2E483E50062056
:1095B0005A50314A985084205F58294A4000002F61
:1095C000F9D0A323DB00D358A0210393A123C9051D
:1095D000DB00CE50039B01330393224BCE5000237C
:1095E00060211350244BD15084235B0098461358BC
:1095F0001B4F002BF8D0A323DB00FB5864200493FF
:10960000A023DB059946A1234A46DB00D650049BE4
:1096100001330493FEF750FE53462F60DA7A01239C
:10962000494693400F4A8B50002241467A50124AD5
:109630000339FF39B9504246B9580029FCD0A3225A
:109640000749D2008A58A0210592A122C905D2005B
:109650008B50059B0120013305939FE7EC200020F0
:10966000004000400C0500002405000054050000E7
:1096700034070000F82000201C05000030B5554CD0
:1096800083B0A37A002B00D197E06B46DD1D002349
:109690002B7023680122597C636818782B00FFF730
:1096A000F1FA002800D088E0236801225979636824
:1096B00018782B00FFF7E6FA002800D07DE0236839
:1096C00001221979636818782B00FFF7DBFA00286C
:1096D00000D072E02423E35C002B36D00C232B70E7
:1096E000236801221979636818782B00FFF7CAFAFA
:1096F000002862D13230FEF7DFFDC0232B70A37A41
:10970000DB0762D4236801221979636818782B007B
:10971000FFF7B8FA002850D1637C002B58D12B708A
:1097200023680122597C636818782B00FFF7AAFA96
:10973000002842D12368287059796368012218787B
:109740002B00FFF79FFA404235E004232B7023687B
:1097500001221979636818782B00FFF793FA002823
:109760002BD1A27C4023002A2AD02B70236801220F
:109770001979636818782B00FFF784FA00281CD148
:109780003230FEF799FD637C5A1E93412B7023689B
:109790000122597C636818782B00FFF773FA0028C0
:1097A0000BD12300226810335179626810780122AE
:1097B000FFF768FA404203B030BD01204042FAE7AB
:1097C000A27AD207D1D52033CFE7E0232B7099E7D7
:1097D0000223A4E76820002070B5060082B0282884
:1097E00000D9BBE02323694C01ADE35C00282CD1F8
:1097F000002B18D02870A27C8023002A02D07E3B48
:109800002B7080332222A25C002A00D08AE02368D9
:109810000122D97D636818782B00FFF733FA0028FE
:1098200001D12323E05400232B7007336B7023688E
:109830000222597D636818782B00FFF723FA00286D
:1098400000D08BE0207502B070BD012B19D0302301
:109850002B70A27C8033002A02D07E3B2B70803399
:109860002222A25C002A5BD123680122D97D636891
:1098700018782B00FFF706FA002802D101222323D3
:10988000E25420232B70012E6BD0052E59D9142EB3
:109890004AD903236B70A37A002B6FD004236A4646
:1098A000D370E37A042B69D0236801229978636826
:1098B00018786B460333FFF7E5F9002860D16B4653
:1098C0000722DB78E3726B789B011343DBB26B708A
:1098D00023680222597D636818782B00FFF7D2F9BC
:1098E00000283BD108230122A372207322751C3368
:1098F000E35C002B12D12374637C002B0ED16B46EA
:10990000DA702368597C636818786B460333FFF775
:10991000B9F9002802D16B46DB786374002092E726
:109920002B70A1E72B7072E702236B70A37A002BD8
:1099300005D005236A46D370E37A052BB4D187237B
:10994000C5E701236B70A37A002B05D006236A4676
:10995000D370E37A062BA7D14723B8E70120404212
:1099600071E700236B70A37A002B05D006236A46AB
:10997000D370E37A062B97D10723A8E7C723A6E77E
:109980006B789A0107231343DBB2A0E7682000201D
:1099900010B5114A0100537A012B19D0002B13D0B6
:1099A000022B0AD0032B0CD1102320240370D37C6C
:1099B0000020002B00D00C7010BD08231024037071
:1099C000F5E701204042F7E7022304240370EEE7A5
:1099D000042308240370EAE76820002070B51C4CBB
:1099E00082B0A37A002B27D06B46DD1DBB2816D88A
:1099F000612817D902232B70E27A00269A420BD0F5
:109A0000236801229978636818782B00FFF73AF9E8
:109A1000002811D12B78E372300002B070BD012311
:109A20002B70E9E7292804D8132808D904232B70C0
:109A3000E2E703232B70DFE701267642ECE70928F3
:109A400002D905232B70D7E706232B70D4E7C04635
:109A50006820002070B5584C82B0A37A0600002B15
:109A600000D196E02423E35C002B00D091E0227D1E
:109A7000002A30D0421E272A00D885E02322A25C8B
:109A800001AD002A18D02B70A37C8022002B02D0BD
:109A9000022302322B702223E35C002B00D071E002
:109AA00023680122D97D636818782B00FFF7EAF854
:109AB000002801D12323E05400232B7007336B705F
:109AC00023680222597D636818782B00FFF7DAF8C3
:109AD000002800D12075F920032E31D86B46D870AC
:109AE000236801225978636818786B460333FFF7BF
:109AF000C9F800284DD16B46FA20D9788000013191
:109B000002F044FFA37A80B2E0814008002B14D019
:109B100001ADBB2821D9012301222B70E37A9342A6
:109B20000BD0236801229978636818782B00FFF71F
:109B3000A9F8002801D12B78E372002002B070BD93
:109B4000FA23311C9B009E420FD8FA2089B2800074
:109B500002F01CFF0138C0B2C0E761280ED82928E6
:109B60001AD9032303222B70D8E7FA20191C89B2D3
:109B7000800002F00BFF0138C0B2AFE702230222DF
:109B80002B70CBE72A708BE7C0B2FFF725FE0020D1
:109B9000D4E701204042D1E7132805D8092807D986
:109BA000052305222B70B9E7042304222B70B5E7A7
:109BB000062306222B70B1E768200020F0B5474647
:109BC000242380B4304D82B0EB5C0024002B2BD1D9
:109BD000AC7A002C54D00133984304402F7C2C7471
:109BE000041B621E944106006442002821D12A7D94
:109BF000002A30D06A7C002A16D107326A441370DA
:109C00002B689046597C6B68187813000122FFF787
:109C100039F8002808D143461B786B74002E03D016
:109C2000FFF72CFD002827D1200002B004BC90468D
:109C3000F0BD6A7C002AF3D107226A4413702B68B6
:109C40009046597C6B68187813000122FFF71AF8C8
:109C50000028E0D0E4E76B46DA712B680122597CDA
:109C60006B6818786B460733FFF70CF80028DBD1D8
:109C70006B46DB796B74D7E701242F746442D3E71A
:109C800001246442D0E7C04668200020F0B54F466A
:109C900046467023C0B4050083B0034069D06B46CC
:109CA0009E1D01233370484C01222368597D63684F
:109CB00018783300FEF7E6FF002800D07EE040224F
:109CC00033783070934323732A4266D03A20844617
:109CD0003738814601383823392201213B27804615
:109CE000A80604D443463A00337049466346E80662
:109CF00001D4130031702A0700D433702368012285
:109D0000997D636818783300FEF7BCFF002855D1B1
:109D100008232A009A4320D02323E35C002B1CD085
:109D20006B46D871A37C8022002B03D06A460223A5
:109D3000D37182222223E35C002B01D06B46DA71BF
:109D400023680122D97D636818786B460733FEF7D4
:109D500099FF002801D12323E05400233220A5726B
:109D60002375FEF7A9FA002003B00CBC9046994673
:109D7000F0BD00281ED16B464027134C9E1D236862
:109D80003770597D6368012218783300FEF77AFF37
:109D9000002813D13378BB4323733E200423844629
:109DA00037388146013833703D22383305213F274B
:109DB000804695E76A46961D337074E700230120BC
:109DC000A3724042D0E7C04668200020802370B5CF
:109DD000774C84B002AD2B7023680122597D6368F3
:109DE00018782B00FEF74EFF061E00D0C2E064205C
:109DF000FEF762FA23682E70597D63680122187895
:109E00002B00FEF73FFF002800D0B3E070232B703B
:109E100023680122D97E636818782B00FEF732FF91
:109E2000002800D0B5E023680622597E63681878C0
:109E30002B00FEF7C7FE002800D09BE004216B79C1
:109E400001269B0019400223EA78520013406A78E9
:109E50000B433240134300D182E0D9B2012B03D02F
:109E6000022900D098E00023E37400232B702368BC
:109E70000122D97E636818782B00FEF703FF051EC8
:109E800000D086E00122FF235242A3722372637244
:109E9000E372E2812274A3742332FE3BA354237342
:109EA0002233E054607520752000163A16300021E8
:109EB000FEF7AEF92423E5540133E554A37AE58493
:109EC000002B57D06B46DD1D18232B70237A032BF4
:109ED0000FD0236801229979636818782B00FEF768
:109EE000D1FE002846D12B78DB082372A37A002B01
:109EF00040D000232B70637A002B0FD023680122FF
:109F0000D979636818782B00FEF7BCFE002831D1A0
:109F10002B78DB086372A37A002B2BD005232B70E0
:109F2000E37A052B0BD023680122997863681878AF
:109F30002B00FEF7A7FE00281CD12B78E372FA2035
:109F40008000FFF787FD002814D10020FFF736FEC0
:109F5000041E0FD10020FFF799FE200004B070BD51
:109F600023680122D978636818782B00FEF72AFE4F
:109F7000002802D001246442EFE70F222B7813401F
:109F800010D0042B00D06EE70A4805F02DFBE674D4
:109F90006BE703246442E0E70124074805F024FB53
:109FA0006442DAE70124054805F01EFB6442D4E769
:109FB00068200020F40702007C070200A4070200CA
:109FC000F0B54F4646462423C0B4284C83B0E35C2A
:109FD000070089469046002B3BD0A37A002B38D04F
:109FE000236801AE197B6368022218783300FEF7FC
:109FF000E9FD00282DD1357873782D021D43BD422F
:10A000002AD3606843885B089D420CD92368007896
:10A01000D97C01223300FEF7D5FD002819D1337811
:10A02000DB061DD460682368FAB2597B00784B4682
:10A03000FEF7C8FD00280CD13900280002F01CFCF6
:10A04000434601381870002003B00CBC9046994676
:10A05000F0BD01204042F7E7434618700138F3E7AE
:10A06000FFF70CFB02204042EEE7C04668200020CC
:10A0700070B50D0082B0161E20D0124CA37A002BB2
:10A080001CD0020A01AB1A70C0B262685870401846
:10A090005189884212DC21681078C97E0222FEF7BD
:10A0A000F1FD00280AD12368EAB2197E63681878A6
:10A0B0003300FEF7E7FD404202B070BD0120404290
:10A0C000FAE7C04668200020F0B556465F464D4688
:10A0D0004446F0B48BB003932523514E0191029274
:10A0E000F35C8246002B75D1002973D0002800D183
:10A0F00094E00400102800DD75E0A3B29B46B37A1B
:10A10000002B67D0002305AF70683B707B704389DC
:10A110009C425FDC019B0025984638E0336810784C
:10A12000D97E02223B00FEF7ADFD002852D13368F4
:10A130004A46197E7368187806ABFEF743FD00287F
:10A1400048D1220006A9404605F036FA00284CD135
:10A150005D44ADB2AA454BD953465C1B102C00DDC3
:10A160001024A3B29B46019B9846A8444346002B6B
:10A1700030D0B37A002B2DD02B0A3B707068EBB235
:10A1800022047B70120CD3184289934222DC33687C
:10A190000078D97E02223B00FEF774FD002819D119
:10A1A000E3B2994633684A46197E73681878434685
:10A1B000FEF768FD00280DD1B37A002B0AD02B0AD8
:10A1C0003B707268EBB27B702404240C51891B191C
:10A1D0008B42A3DD012040420BB03CBC9046994627
:10A1E000A246AB46F0BD102487E702204042F3E7C9
:10A1F000029A130A3B7033687A70597F736802229F
:10A2000018783B00FEF73EFD0028E3D1252301220C
:10A21000F2546B469B890020F384DDE705AFE8E745
:10A2200068200020242330B55A4C83B0E35C83427D
:10A2300076D0002800D17AE02522A25C002A00D145
:10A240009EE0002B00D06EE0A27A002A00D19AE0B6
:10A250006A46D51D2B7023680122597C63681878E3
:10A260002B00FEF70FFD002801D12B786374A37C2F
:10A27000002B36D0236801221979636818782B00E7
:10A28000FEF7A0FC00282CD1A37ADB0700D56FE0F5
:10A2900020222B7893432B7023680122197963685D
:10A2A00018782B00FEF7EEFC00281AD10330FEF7D9
:10A2B00003F82223E35C3022002B01D0802380327C
:10A2C0002B702323E35C002B00D02A70236801222B
:10A2D000D97D636818782B00FEF7D4FC002800D1E4
:10A2E000A074E08CFFF7B6FB6B46002206331A70B1
:10A2F0006268232110780122FEF7C4FC2423012286
:10A30000E254223B2B702368597C636818782B0039
:10A31000FEF7B8FC002801D12B786374FFF7AEF983
:10A32000002003B030BD6B46DD1D002392E7002BFB
:10A3300022D1A27A002A29D06A46D51D2B70236823
:10A340000122597C636818782B00FEF79BFC0028DB
:10A3500001D12B786374237C01222B706368232145
:10A3600018782B00FEF78EFC00222423E254D5E758
:10A3700020232A7813438EE76B46DD1D2870DEE725
:10A3800001204042CDE76B46DD1D70E76B46DD1DC9
:10A39000E1E7C04668200020802210B5C823D20023
:10A3A00002490348FFF790FE10BDC0468C0802002A
:10A3B000F60B0000F0B5404C87B002AF050003AECD
:10A3C00021000322380005F006F9211D0322300088
:10A3D00005F001F921000322083104A805F0FBF87B
:10A3E000210003220C3105A805F0F5F8032108002F
:10A3F0006A466C4628403B5C1370EA080A40BB5C26
:10A40000B25C6370AB090B40F95CF35CA170315C2A
:10A4100001AC2170627003216A462848A370FFF7DF
:10A4200027FE002845D1220003212548FFF720FE02
:10A4300000283ED1032204A9684605F0CCF8032287
:10A4400005A9200005F0C7F86B0708D56A46012367
:10A45000694612781A430A70227813432370AB06B8
:10A4600008D56A460123694652781A434A706278D1
:10A4700013436370EB0512D488206A460321C000A1
:10A48000FFF7F6FD002814D1220003210D48FFF745
:10A49000EFFD00280DD10C4B1D8107B0F0BD6A46C1
:10A4A0000123694692781A438A70A2781343A370F5
:10A4B000E2E701204042F0E74008020026040000E5
:10A4C0002A04000031040000FC20002010B51449CB
:10A4D00086B004000C22103103A805F07CF8C82CCB
:10A4E0001AD82100C82002F051FA013880B201AA1E
:10A4F000030A507002210B481370FFF7B9FD0028C2
:10A500000AD103AA0C210848FFF7B2FD002803D1A5
:10A51000064B9C8106B010BD01204042FAE7C046C0
:10A520004008020016020000C10A0000FC200020C2
:10A53000F0B5050083B043076BD0C823DB00994218
:10A5400067D8080003F00EFA4D4902F03DFD6B4656
:10A55000DC1C071C2000FFF71BFA2378042B00D11A
:10A560007DE033D9082B6AD0102B52D18A21381CB8
:10A57000C90502F0F3FE02F099FB424986B2381C8D
:10A5800002F0ECFE02F092FB80B201AC330A2370C1
:10A59000030A6670A370E070EB0729D4AB073CD4C4
:10A5A00000206B0737D5EE20220002214000FFF784
:10A5B0005FFD00282DD16B462D309A1D0221FF3002
:10A5C000FFF756FD431E9841404224E0022B20D164
:10A5D0008D21381CC90502F0C1FE02F067FB2A4933
:10A5E00086B2381C02F0BAFE02F060FB80B2CCE703
:10A5F000EA20220002214000FFF73AFD002808D19E
:10A600006B4625309A1D0221FF30FFF731FD0028EF
:10A61000C4D00120404203B0F0BDEC202200022152
:10A620004000FFF725FD0028F3D16B4629309A1D25
:10A630000221FF30FFF71CFD0028B1D0E9E78B2194
:10A64000381CC90502F08AFE02F030FB0F4986B2C1
:10A65000381C02F083FE02F029FB80B295E78C21C2
:10A66000381CC90502F07AFE02F020FB084986B2C8
:10A67000381C02F073FE02F019FB80B285E7C04679
:10A68000000048430000C044000040460000404530
:10A690000000C045F0B54E4645465746E0B486B08A
:10A6A000924B03AC06002200042168200393FFF7BD
:10A6B000DFFC4022A32332402370904600D10DE1FD
:10A6C0001D3363700833A370063BE370C0277F001F
:10A6D000374000D1FDE0C423237108336371063B8A
:10A6E000A371A32322000A218148E37123726372BC
:10A6F000FFF7BEFC0323334099464A462023002A35
:10A7000000D1B833220001217A4823706D46FFF74B
:10A71000AFFC09227849B30600D4D8E01C312800E8
:10A7200004F059FF97202A000921C000FFF7A0FC80
:10A73000002F09D0F30500D5D4E0704B039322001D
:10A7400004216F48FFF794FCF30700D4B6E08B2098
:10A75000F8232200012100012370FFF789FCFA2170
:10A760000720FFF7E5FEA4203F232A000121400037
:10A770002B70FFF77DFC002350209A462A00012110
:10A78000FF302B70FFF774FC5346EF202B7014231F
:10A790002A00022140006B70FFF76AFC5346ED204F
:10A7A0002B7064232A00022140006B70FFF760FCCD
:10A7B00053462B708E23AE206B706B33AB702A0028
:10A7C000693B04214000EB70FFF752FC5346AD207B
:10A7D0002B7008232A00022140006B70FFF748FC11
:10A7E0005346AC202B7002232A00022140006B70DC
:10A7F000FFF73EFCB307DB0FD833220001214148AD
:10A800002370FFF735FC730752D53F4B00932A00A6
:10A8100004213E48FFF72CFCFEF730FFF30641D53C
:10A820003B4B00932A0004213A48FFF721FCFEF736
:10A8300025FF0823384C33436381FEF71FFF43464F
:10A84000002B22D10A20434684460C308246103821
:10A85000A3731422042310211A258046002F04D04C
:10A8600043462A00A373514663461420304201D068
:10A870001300A1734A46002A00D0A373002006B03B
:10A880001CBC90469946A246F0BD10200623844683
:10A890000C3082461038A3731A2204331621202567
:10A8A0008046DBE70422A3212800FDF7B1FCB9E7CD
:10A8B00004228B212800FDF7ABFCA8E78B20D823CE
:10A8C0002200012100012370FFF7D2FB92E728311B
:10A8D00025E7A32323716371A37102E76370A3705B
:10A8E000E370F3E60D4B039329E7C04602CAE30980
:10A8F000A70A0000B60A000040080200B080B49029
:10A90000A20A00003D070000C0C2C4C6980A0000A9
:10A91000202830389E0A0000FC200020B28BB69B15
:10A92000F0B544465F4656464D460023F0B491B01C
:10A9300014001A9A070013807B4B8846987B1B9A59
:10A9400008A9FFF73DFB061E00D0E4E01422764B79
:10A950005B891A4200D07DE002250022AC46013D11
:10A96000062404210320A946924693460C320792FE
:10A97000013A0692013A0592013A0492013A039291
:10A98000013A0292013A0192013A00925D0630D5F5
:10A99000524608ADAA5CA346120292462A004D46D2
:10A9A000525D5546154342461580654608AA525DDC
:10A9B000079C1202944608AA105C62461043424665
:10A9C0005080009808AA515C125C0902114342466B
:10A9D00091801A9A0498118808220A431A990A80C9
:10A9E000069A05990092039A9446029A9146019A12
:10A9F0009246C0256D002B4222D0554608AA525DD2
:10AA00004D461202904608AA525D454615433D80C8
:10AA1000654608AA525DA3461202944608AA105C35
:10AA200062461043788008AA0098515C125C0902C3
:10AA30000A43BA801A9A118870220A431A990A8026
:10AA40009B074BD1300011B03CBC90469946A246C2
:10AA5000AB46F0BD089A11BA099A216010BA0A9A59
:10AA6000606012BA9246A2600B9A001412BAE260B9
:10AA70000C14514664430914404312144943524391
:10AA8000201840188018F122120694468022604453
:10AA90009204904242D880211A9A490012881624C2
:10AAA0000A431A9913200A80102293460C32079207
:10AAB000013A0692013A0592013A0492013A039250
:10AAC000013A0292013A0192013A0092033A944605
:10AAD000013A9146013A1421924657E708AB9C4649
:10AAE0005C4664446378E778DA070BD50E4A12684F
:10AAF000002A07D007200100FB0839401840013127
:10AB0000904763781B079DD5074B5B68002B99D056
:10AB1000B809984796E70126764293E7FEF7AEFD1F
:10AB20001A9B1E80013E8DE7FC2000200023F0B51B
:10AB3000C356002B36DD302200232024082128268E
:10AB400010259446382703228256002A18DD062154
:10AB500041560022002902DD134398B2F0BD0029BE
:10AB60003AD10721415640320029F5DC51D1082164
:10AB7000415640320029EFDC59D1E0225200EBE788
:10AB8000002A27D1042282560B00002ADFDC3ED1A6
:10AB9000052282562B00002AD9DC3B00002AD6D0A1
:10ABA0006346D4E7002B0CD10123C356002B16DDDE
:10ABB00031220123212409212926112594463927F0
:10ABC000C1E73422042324240C212C261425944686
:10ABD0003C27B8E72300BAE780225200BCE7002BED
:10ABE0000CD10223C356002B16DD3222022322246D
:10ABF0000A212A26122594463A27A4E7352205235E
:10AC000025240D212D26152594463D279BE733004D
:10AC10009DE7A02252009FE7002B0BD1372207238C
:10AC200027240F212F26172594463F278BE7013233
:10AC3000FF3291E73622062326240E212E261625E2
:10AC400094463E277FE7C046F0B55F4656464D46E0
:10AC50004446F0B4050085B0006802F03BFEC22116
:10AC6000890502F07BFB041C686802F033FEC221F8
:10AC7000890502F073FB8046A86802F02BFEC22112
:10AC8000890502F06BFB8146E86802F023FEC221D1
:10AC9000890502F063FB211C051C201C02F05EFBF1
:10ACA0004146071C404602F059FB49468246484649
:10ACB00002F054FB291C0090281C02F04FFB514667
:10ACC000061C381C02F05EFC009902F05BFC311C93
:10ACD000019602F003F804F0F7FB02900391291C9F
:10ACE000484602F03BFB41468346201C02F036FBFF
:10ACF000011C584601F0F2FF04F0E6FB02000B00D5
:10AD000002F06EFE029A039B01F074F80022304BB1
:10AD100003F0B6FD04F0A2FB2E4B291C1880404620
:10AD200002F01CFB49468346201C02F017FB011C65
:10AD3000584602F027FC04F0C7FBC02300221B0684
:10AD400003F09EFD00F0F4FF80268B468446360615
:10AD50005E44604600221E4B310003F091FD04F07A
:10AD60007DFB1D4B51461880381C01F0B7FF009940
:10AD700002F008FC019902F005FC04F0A5FB0600B6
:10AD80000F004046494602F0E9FA291C8046201C83
:10AD900002F0E4FA011C404601F0A0FF04F094FB2D
:10ADA00002000B0002F01CFE32003B0001F022F812
:10ADB0000022074B03F064FD04F050FB074B1880A2
:10ADC00005B03CBC90469946A246AB46F0BDC04695
:10ADD000005FC440D82100200E2200204E21002018
:10ADE00000B5184B8DB001930E236B44009306A958
:10ADF000002308AA04A8FFF793FD41B2002904D05C
:10AE0000114804F0F1FB0DB000BD08A8FFF71CFFCE
:10AE10006B461A8B0D4B1A806B465A8B0C4B1A8063
:10AE20006B469A8B0B4B1A806B461A8A0A4B1A8018
:10AE30006B465A8A094B1A806B469A8A084B1A80CD
:10AE4000E1E7C04650210020841402009C2200202B
:10AE50004C2100205221002028240020A022002084
:10AE6000B824002070B5050082B000200E00FEF767
:10AE7000ADFF0100324804F0B7FB7820FEF706FF73
:10AE80000100304804F0B0FB7820FEF797FE010087
:10AE90002D4804F0A9FB002D22D16B46DC1D0122B8
:10AEA000DD711A2123006820FDF7ECFE0100274820
:10AEB00004F09AFBFA203100400101F067FD0138EF
:10AEC00020701921230001226820FDF7DBFE01001C
:10AED0001F4804F089FB40221E4B1A6002B070BD6F
:10AEE000FFF75AFA01001C4804F07EFB1B48FFF7ED
:10AEF0001DFEFFF75FFA0100194804F075FB722090
:10AF0000FF30FFF7C7FB0100164804F06DFB64201B
:10AF1000FFF7DCFA0100144804F066FB0120FFF79C
:10AF200081F90100114804F05FFB0A20FEF756FD8D
:10AF300001000F4804F058FB0A20FDF7BDF9CAE7ED
:10AF4000A4140200BC140200D41402007C150200F8
:10AF50009415020000E100E0EC14020094200020AF
:10AF6000041502001C150200341502004C150200E5
:10AF70006415020010B50B0001000B4804F034FB0F
:10AF80008021A123A022FA20C900DB00D205D150E4
:10AF9000C000FDF791F9BFF34F8F044A044BDA600C
:10AFA000BFF34F8FFEE7C046AC1502000400FA0560
:10AFB00000ED00E080218023184A8902D1508022D0
:10AFC000D221174B520289005A5040395A5001225F
:10AFD0002F205A600138C046C046C046C046C04611
:10AFE000C046C046C046C046C046C046C046F1D175
:10AFF0009A6000230B4A2F2013600138C046C046D8
:10B00000C046C046C046C046C046C046C046C04610
:10B01000C046C046F1D1044A1370704700E100E019
:10B02000001001400C2100202C210020A021F0B5AF
:10B03000002347462C4A490080B4535004315350F2
:10B0400004315350043153504C3953500431535050
:10B05000264B1B68002B37D025490026525825491E
:10B06000254F0C68141B00222402240A904602E09B
:10B07000002D1AD02B001A68A24216D8A41AB618AE
:10B080001A7CDD69002AF3D0424699691A745A691C
:10B090003B68002B1BD0100098470028E8D0002206
:10B0A0000021FFF767FF002DE4D1144B14491A78F3
:10B0B0000B789A420ED0134A9B009E508021802329
:10B0C000114A49035B00D15004BC9046F0BD080012
:10B0D0009047CDE70132D3B2022B01D00B70EAE7E3
:10B0E00000230B70E7E7C04600100140102100204C
:10B0F000040500000C210020142100202021002044
:10B10000212100202421002000E100E0F0B55F466D
:10B1100056464D464446F0B4C54BC64A1B68C64920
:10B120008BB0059309781378994200D157E1013328
:10B13000DBB2022B00D100231370C04A9B009B5846
:10B14000BB4A9A46059B53441B021B0A136001230A
:10B150000193BB4B00241B689B46BA4B5A461B7895
:10B16000914619000393B84B88461B6847460493E1
:10B17000AF4B013F1B680793B44B1B780993002327
:10B180009C4606930893FBB266469846FF2B32D046
:10B190004346D800049B9C461300604401784578E0
:10B1A00000961A00A9421FD046684A00B4465218B9
:10B1B00086780131D200C9B262448E4200D1EDE0FE
:10B1C0001678022E00D1C7E0032EEAD1002BE8D07A
:10B1D0001C74DB69002BFBD10133457800930023FD
:10B1E00099461A00A942DFD14746013FFBB2009EB3
:10B1F0009846FF2BCCD1089BC8460292B446002B40
:10B2000000D0F0E0069B002B02D0894B079A1A6011
:10B210006346002B02D04246894B1A60019B002BEB
:10B2200000D02DE15B46029A00259B1A5A1E9341DD
:10B23000DBB205937E4B00271B6802999C46804B2E
:10B240001B689B46814B1B78069300230193804B20
:10B25000994601230093039B013BDBB20393FF2B31
:10B2600000D1F9E0049ADB0092460E009A44002DCA
:10B2700028D06A68A9682C00ED696346D31A1B02BE
:10B280001B0A4B4552D86A4612785B1823606760E8
:10B29000A7602274E761002E58D0316830009942CF
:10B2A00005D3B9E01168994200D3A3E01000C26948
:10B2B0005B1A002AF6D1E26132002360C4611600F5
:10B2C000002DD6D153461A785B7831009342C2D014
:10B2D000514649685300884651469B180132D2B204
:10B2E0000A708978DB004344914200D19DE01978CF
:10B2F00032000129E3D15C68227C9046414632004D
:10B300000029DCD19A686260D968A1601869E060A0
:10B310005B69A361069B002BAFD0434600226360AC
:10B320006346D31A1B021B0A4B45ACD963469A1AD3
:10B330001202120A8A4264D28B1A6A461278236079
:10B340006760A7602274E761002EA6D12200012366
:10B35000A34601931600B3E75668002B30D09E42F7
:10B360001ED0009A1F00944602E0964206D01700B5
:10B37000FA69002AF9D16246009212E76546009503
:10B38000BA420FD01568D269FA61002A16D0136844
:10B390009C466544156045784B4602E700210FE75F
:10B3A0001A001F00DE69002E0CD0012500951568DB
:10B3B000D269B1463300FA61002AE8D14578F0E657
:10B3C0000023EEE60125234B9D60009506950025A0
:10B3D000002307950135994608950995D2E7002382
:10B3E0009A460193B5E66A4624215218174B127803
:10B3F0001A7007E7C91A1160E26123603200C46164
:10B400005DE76B461B7827606760A7602374E76180
:10B41000002E9BD000233168CB1A33602200012319
:10B42000E661A346019316004AE7524615705EE7AF
:10B430000C21002020210020212100202421002097
:10B4400010210020182100201C2100202221002092
:10B45000FEFF7F0000100140019B002B00D09DE00B
:10B46000029B994236D1059B002B33D10023534ACE
:10B4700013700BB03CBC90469946A246AB46F0BD5B
:10B480004F4B002418680025029B002100265746D8
:10B4900015E01A68BA4200D984E0D868BF1A891842
:10B4A0001E60DC69002807D0DD611D00059A9860E8
:10B4B00052181202120A5A6023002000019C002B2D
:10B4C000E7D1002C01D03E4B1860002302930133DA
:10B4D0000593AFE6002900D15DE00B683948984636
:10B4E000394B3A4DC4583A4B2E781B68E11A090281
:10B4F000090A0331002E2DD042468A4200D20A00AA
:10B50000A820D21812022F49130AC0002E4D0B504A
:10B510004A591B1B121B1202120A1B0203321B0A7E
:10B520009A42A3D94B590B502F200138C046C04630
:10B53000C046C046C046C046C046C046C046C046DB
:10B54000C046C046F1D180218023224A89025B0097
:10B55000D1508BE78026D1277602BF00C651403FED
:10B56000C651C02280271B4EBF025200B750376021
:10B57000012606602F200138C046C046C046C0469E
:10B58000C046C046C046C046C046C046C046C0468B
:10B59000F1D12E70B0E7FFF70DFD67E75A46084B73
:10B5A0001A605DE7BA46002C01D005490860514693
:10B5B000521A1A600293012305933BE622210020D0
:10B5C0001021002000100140040500002C21002063
:10B5D0000C21002000E100E051DF704761DF70477F
:10B5E000F0B557464E464546E0B4344B344E1D68E0
:10B5F00099466B425D41334BEDB21C6898466342FD
:10B600005C4182B0E4B2304FB246002D13D0002C22
:10B6100040D13C68338801A920000B80FFF7DEFF92
:10B62000052837D000282AD000220021FFF7A2FCED
:10B630000024002DEBD101A8FFF7CEFF05280DD087
:10B64000002822D000220021FFF794FC002C27D0F4
:10B65000012401A8FFF7C0FF0528F1D1002C19D162
:10B6600053466A461B8801A99380174B1C6820002B
:10B67000FFF7B4FF05280DD001250028D4D143469B
:10B6800020001B6898470024D3E74B4601981B68AD
:10B690009847DBE702B01CBC90469946A246F0BD35
:10B6A0006A46074B01A91B889380074B1C68200042
:10B6B000FFF794FF0528B5D10124CAE73421002003
:10B6C0002E210020382100203021002010B50A4B07
:10B6D0001B68002B08D09847002800D110BD00221D
:10B6E0000021FFF747FCF9E7044B1B78002BF5D04E
:10B6F000FFF776FFF2E7C0463C2100202D21002015
:10B7000010B5074C2D22238806495800C0180301A4
:10B71000181AFDF7DDFC23880133238010BDC046D5
:10B720009E220020E0210020F0B5454657464E46B7
:10B73000E0B40C4B82B019880B48984603F054FFD4
:10B7400000236A46D38043461B88002B00D1CCE1FE
:10B75000064B0020994602234B44054C054F9A4660
:10B7600014E0C0469E220020D4150200E0210020F3
:10B7700027240020A42200206B46D888013080B204
:10B78000D88043461B88834200D8AEE14300181896
:10B790000301181A2D224946FDF7BEFD0028EBD003
:10B7A0006B461821981D00F04FFA23780025002BD6
:10B7B0000AD0785DFDF7EAF86420FCF77DFD0135DD
:10B7C0002378EDB2AB42F4D82121504600F03CFA88
:10B7D0002378002B0CD00026C74DA85DFDF7D6F8C6
:10B7E0006420FCF769FD731CDEB22378B342F4D801
:10B7F0002221C24800F028FA2378002B0CD0002622
:10B80000BD4DA85DFDF7C2F86420FCF755FD731C23
:10B81000DEB22378B342F4D82421B94800F014FAF8
:10B820002378002B0CD00026B34DA85DFDF7AEF8B1
:10B830006420FCF741FD731CDEB22378B342F4D8D8
:10B840002621B04800F000FA2378002B0CD0002607
:10B85000A94DA85DFDF79AF86420FCF72DFD731C37
:10B86000DEB22378B342F4D82821A74800F0ECF9DF
:10B870002378002B0CD000269F4DA85DFDF786F89D
:10B880006420FCF719FD731CDEB22378B342F4D8B0
:10B8900030219E4800F0D8F92378002B0CD00026E8
:10B8A000954DA85DFDF772F86420FCF705FD731C4B
:10B8B000DEB22378B342F4D83221954800F0C4F9BF
:10B8C0002378002B0CD000268B4DA85DFDF75EF889
:10B8D0006420FCF7F1FC731CDEB22378B342F4D889
:10B8E00034218C4800F0B0F92378002B0CD00026CE
:10B8F000814DA85DFDF74AF86420FCF7DDFC731C60
:10B90000DEB22378B342F4D83621834800F09CF9A4
:10B910002378002B0CD00026774DA85DFDF736F874
:10B920006420FCF7C9FC731CDEB22378B342F4D860
:10B9300038217A4800F088F92378002B0CD00026B3
:10B940006D4DA85DFDF722F86420FCF7B5FC731C73
:10B95000DEB22378B342F4D84021714800F074F984
:10B960002378002B0CD00026634DA85DFDF70EF860
:10B970006420FCF7A1FC731CDEB22378B342F4D838
:10B980004221684800F060F92378002B0CD0002693
:10B99000594DA85DFCF7FAFF6420FCF78DFC731C81
:10B9A000DEB22378B342F4D844215F4800F04CF96A
:10B9B0002378002B0CD000264F4DA85DFCF7E6FF46
:10B9C0006420FCF779FC731CDEB22378B342F4D810
:10B9D0004621564800F038F92378002B0CD0002679
:10B9E000454DA85DFCF7D2FF6420FCF765FC731C95
:10B9F000DEB22378B342F4D848214D4800F024F950
:10BA00002378002B0CD000263B4DA85DFCF7BEFF31
:10BA10006420FCF751FC731CDEB22378B342F4D8E7
:10BA20005021444800F010F92378002B0CD0002658
:10BA3000314DA85DFCF7AAFF6420FCF73DFC731CA8
:10BA4000DEB22378B342F4D858213B4800F0FCF82A
:10BA50002378002B0CD00026274DA85DFCF796FF1D
:10BA60006420FCF729FC731CDEB22378B342F4D8BF
:10BA70006021324800F0E8F82378002B0CD0002633
:10BA80001D4DA85DFCF782FF6420FCF715FC731CBC
:10BA9000DEB22378B342F4D86221294800F0D4F80A
:10BAA0002378002B0CD00026134DA85DFCF76EFF09
:10BAB0006420FCF701FC731CDEB22378B342F4D897
:10BAC000412000F0F7F82378002B00D154E600263F
:10BAD000094DA85DFCF75AFF6420FCF7EDFB731CD1
:10BAE000DEB22378B342F4D846E6012002B01CBC93
:10BAF00090469946A246F0BDA4220020E6210020EF
:10BB0000E7210020E9210020EB210020ED21002089
:10BB1000EF210020F1210020F3210020F521002059
:10BB2000F7210020F9210020FB210020FD21002029
:10BB3000FF210020012200200322002005220020F6
:10BB40000922002010B5FCF705FF0322334B010A40
:10BB5000DA710022D970010C197101219870000E60
:10BB600058712C201A721A739A732D4A997199720E
:10BB700011785872D97364385178D8729C305873E0
:10BB8000197491785974D17899741179D97451795B
:10BB9000197591795975D2799A75224A1178527826
:10BBA000D9751A76204A1178527859769A761F4AB2
:10BBB00011785278D9761A771D4A117852785977C8
:10BBC00019009A771B4A1F3110785278D8774A703B
:10BBD0001A001949213208784978107051701A00FA
:10BBE0001649233208781070497851701A001449A8
:10BBF0002532087829331070487850708878C978D1
:10BC00009070D1700F4A01201178197051785970D5
:10BC10009178D2789970DA7010BDC046E02100208A
:10BC2000B0240020D82100200E2200204E21002028
:10BC300028240020A0220020B8240020A2220020D6
:10BC4000DC210020102200207723F0B5154F7970F9
:10BC50001839C9B23B704C2919D8134B134A5B5C95
:10BC6000D91C11701E1E1AD019000022104C855CC0
:10BC70002570855C01325B19DBB25918C9B20134F9
:10BC8000B242F4DB002E08DD0236B955F0BD0422C5
:10BC9000064B01261A700123E6E70126F4E700218E
:10BCA0000226F2E7A4220020DC150200272400204F
:10BCB000A62200207722054B1A709870133A0230A2
:10BCC0005A70D870024B603A1A707047A422002054
:10BCD0002724002003210A4802680A430260094819
:10BCE00002680A4302600849084A094B9B1A03DDAF
:10BCF000043BC858D050FBDC064880470648004744
:10BD00002405004054050040541802000020002083
:10BD1000A82000202582010021810100FEE7FEE726
:10BD2000FEE7FEE7FEE7FEE749004B081900704713
:10BD3000F0B546464F46C0B48DB004000D0000F08B
:10BD40005DF8284B060098461B780F005BB2013364
:10BD500032D022002B002000290003F05FFB814637
:10BD6000002829D120002900FFF7DEFF00221E4B0A
:10BD700000F022FF00281FD0012302931B4B1C4818
:10BD800003934B46069407950A930494059500F097
:10BD90006DFD43461B78089009915BB2022B12D0CF
:10BDA00002A800F061FD00280DD00A9B0193002B32
:10BDB00011D10898099901E0300039000DB00CBC90
:10BDC00090469946F0BD03F0F1FB212303600A9BE6
:10BDD0000193002BEDD003F0E9FB0A9B0193036074
:10BDE000E7E7C0469D2000200000F03F2C1602002F
:10BDF0007807020010B500F0E7F910BDF0B557461E
:10BE00004E464B005B089A46C0B4CD4B87B0060047
:10BE10000F0089469A4512DDCA4B5344034322D092
:10BE200002000B0002F0A6FF0B00020002F004F972
:10BE30000300180007B00CBC91469A46F0BDC24BF7
:10BE40009A4524DCC14B9A4500DD0CE1C04AC14B48
:10BE500001F0C6FD0022C04B00F0AEFE002816D057
:10BE600033003900E5E7BD4ABD4B02F009FDBD4A8C
:10BE700004000D00BC4B3000390002F001FD0B0046
:10BE800002002900200001F0ABFD0300D1E73000E3
:10BE90003900FFF749FF02000B000020AE4902F015
:10BEA00069FF0022B14B02F0EBFC04000D00B04A28
:10BEB000B04B02F0E5FCB04AB04B01F091FD22001E
:10BEC0002B0002F0DDFCAE4AAE4B02F053FF220025
:10BED0002B0002F0D5FCAC4AAC4B01F081FD2200F6
:10BEE0002B0002F0CDFCAA4AAA4B02F043FF22002D
:10BEF0002B0002F0C5FCA84AA84B01F071FD2200FE
:10BF00002B0002F0BDFCA64A02900391A54B200035
:10BF1000290002F0B5FCA44AA44B02F02BFF22003A
:10BF20002B0002F0ADFCA24AA24B01F059FD220009
:10BF30002B0002F0A5FCA04AA04B02F01BFF220040
:10BF40002B0002F09DFC844B002201F049FD04907F
:10BF500005912000290000F0F3F9994B06000F002D
:10BF60009A4563DC0B00029803990022009201932A
:10BF7000049A059B02F060F83200029003913B00A6
:10BF80003000390001F02CFD02000B0002980399EB
:10BF900002F076FC029003910098019902000B00D8
:10BFA00002F06EFC02000B002000290002F0E2FE0D
:10BFB000009A019B04000D003000390001F010FDD3
:10BFC00002000B002000290002F036F802000B00EE
:10BFD00001F006FD02000B006248634902F0CAFE50
:10BFE00002000B000298039902F0C4FE04000D0049
:10BFF0000098019902000B0001F0F2FC02000B0016
:10C000005648704902F0B6FE02000B0020002900DD
:10C0100002F0B0FE02000B0050486A4902F0AAFE8E
:10C020004B46002B00DC84E0030002E7049A059BEA
:10C030000298039902F000F832003B0002F020FC65
:10C0400032003B0001F0CCFC02000B0001F0C8FC08
:10C05000444A454B02F08EFE02000B003F48404927
:10C0600002F088FEDCE702000B0002F009FC04008D
:10C070000D003F4A3F4B02F003FC3F4A3F4B01F0AB
:10C08000AFFC22002B0002F0FBFB3D4A3D4B02F0CF
:10C0900071FE22002B0002F0F3FB3B4A3B4B01F008
:10C0A0009FFC22002B0002F0EBFB394A394B02F0D7
:10C0B00061FE22002B0002F0E3FB374A374B01F010
:10C0C0008FFC22002B0002F0DBFB354A009001912F
:10C0D000344B2000290002F0D3FB334A334B02F0EB
:10C0E00049FE22002B0002F0CBFB314A314B01F01C
:10C0F00077FC22002B0002F0C3FB2F4A2F4B02F0EB
:10C1000039FE22002B0002F0BBFB0022124B01F093
:10C1100067FC02000B000098019901F08DFF3200CE
:10C120003B0002F0ADFB3B00320001F059FC030084
:10C130007FE68022120694460300614479E6C046F9
:10C14000FFFFEF3F000010C0FFFFDF3FFFFF3F3E5C
:10C150009C7500883CE4377E0000F03F182D445465
:10C16000FB21F93F075C143326A6913C0000E03F19
:10C1700009F7FD0DE13D023F88B20175E0EF493F4F
:10C180003B8F68B52882A43F5544880E55C1C93FEE
:10C190007D6FEB0312D6D43F555555555555C53FC8
:10C1A00082922EB1C5B8B33F59018D1B6C06E63F94
:10C1B000C88A599CE52A00404B2D8A1C273A034027
:10C1C0003233EF3FFB21E93FF8B515004F464646B5
:10C1D0005A001C006B42C0B42B434B4F5208DB0F7C
:10C1E00088461343BB423AD84B005B0899464E46FB
:10C1F00043420343DB0F3343BB4230D8434BE31886
:10C200002B4343D00226A3171E40CB0F1E434B46A1
:10C2100003432ED013002B4332D0BA4241D0B9454C
:10C220002ED04B469A1A12153C2A32DC002C55DBD4
:10C230002A00230001F000FFFFF776FD00F076F9F9
:10C24000012E46D0022E39D0002E0ED0304A314B6E
:10C2500002F090FD304A314B02F08CFD05E0020007
:10C260000B002800210001F0BBFB0CBC9046994656
:10C27000F8BD022E10D0032EF7D127482849F4E745
:10C2800043462548002B0ADB2649EEE700F04EF92D
:10C29000EBE721482349D3E71F482049E5E7224936
:10C2A000E3E791451FD0022EF6D0032EE5D0002003
:10C2B0000021012ED9D180210906D6E7144A154B59
:10C2C00002F058FD02000B001348144902F052FD21
:10C2D000CBE7802424060B191900C6E73C32A7DA05
:10C2E00000200021ACE7022E06D0032E09D00A4818
:10C2F000012E04D00D49B8E70D480E49B5E70E49A7
:10C30000B3E70B480D49B0E70000F07F000010C014
:10C31000075C143326A6A13C182D4454FB21094088
:10C32000FB2109C0FB21F93FFB21F9BFFB21E93FBC
:10C33000D221337F7CD90240FB21E9BF7CD902C0E6
:10C34000F0B556464D4644465F46754BF0B40A007C
:10C350000D00190083B0060004002940994200D165
:10C36000BAE0002D00DC94E02D1500D1A3E06D4B68
:10C3700012039C468023120B5B0365441A43EB07B0
:10C3800000D581E06B109846E30F9B189B18802224
:10C3900016210026002764009203B818984202DC98
:10C3A00087181B1AB618E00F5B0001391B186400D0
:10C3B00052080029F1D100220192944680221206EF
:10C3C0002020914609E09F4241D0E10FC918013871
:10C3D000CB186400520800281ED0614651189F42B5
:10C3E000F1DA8D18AC46CD0FED07BA464D4539D080
:10C3F000DB1B8C42BF417F42DB1B641A0199013871
:10C400008B46934459460191E10FC9185746CB1802
:10C41000640052080028E0D123432BD1019B5B0824
:10C42000414972108C466244F10702D58021090609
:10C430000B43414609058D181E002F0030003900BE
:10C4400003B03CBC90469946A246AB46F0BDA14223
:10C450000ED88D18AC46CD0FED074D4548D09A4605
:10C460000023CAE76546002DC2DB7D1CAA46BFE754
:10C470003B00AAE7019B01333ED0019A0123944679
:10C48000134063445B08CBE7E30F52009A18640043
:10C4900078E76B005B0803432F00002BCED000250C
:10C4A000002A31D1E20A153D6405002AFAD0802322
:10C4B0005B031A4223D180200023400300E00B00DD
:10C4C0005200591C0242FAD02020401AED1A2300D3
:10C4D000C3408C401A434AE702002B00290002F0B7
:10C4E000CFF932002B0001F07BFA06000F00A5E720
:10C4F0006546002DB9DAB2E70136002390E7012343
:10C5000020205B420021E1E73B000200390002F0FD
:10C5100031FC02000B0001F08FFD06000F008DE7DB
:10C520000000F07F01FCFFFF0000E03FF8B5564639
:10C530004D4644465F46A54BF0B44E0080468946C2
:10C540008A4676089E420CDDA14B9E4200DDA0E0AB
:10C5500000D19BE05346002B00DCE3E09D4B9E4A5C
:10C560009FE09E4B9E4200DDB1E09D4B9E4200DC71
:10C570009FE001235B429B4642464B46404649466C
:10C5800002F07EF902000B0006000F0002F078F9BD
:10C5900004000D00934A944B02F072F9934A944BB5
:10C5A00001F01EFA22002B0002F06AF9914A924B28
:10C5B00001F016FA22002B0002F062F98F4A904B2C
:10C5C00001F00EFA22002B0002F05AF98D4A8E4B30
:10C5D00001F006FA22002B0002F052F98B4A8C4B34
:10C5E00001F0FEF932003B0002F04AF9894A8A4B19
:10C5F00006000F002000290002F042F9874A884B0C
:10C6000002F0B8FB22002B0002F03AF9854A864B73
:10C6100002F0B0FB22002B0002F032F9834A844B77
:10C6200002F0A8FB22002B0002F02AF9814A824B7B
:10C6300002F0A0FB22002B0002F022F90B00594669
:10C640000200013100D170E059463000CC003900C1
:10C6500001F0C6F942464B4602F012F9774D784B8D
:10C660002D191C192268636802F084FB42464B4670
:10C6700002F080FB02000B002868696802F07AFB78
:10C6800053460A00002B48DB03000AE0002800D1D3
:10C6900060E742464B464046494601F0A1F9030097
:10C6A0000A00180011003CBC90469946A246AB46D1
:10C6B000F8BD644A644B01F093F90022634B00F02B
:10C6C0007BFA002800D154E743464A46E9E7FFF7E2
:10C6D0002BFB5F4B04000D009E4237DC5D4B9E42FE
:10C6E0005DDC02000B0001F07BF90022574B02F0E9
:10C6F00041FB802306000F000022DB0520002900FB
:10C7000001F06EF90B0002003900300001F094FCDA
:10C710000023804689469B462EE7802212060300AE
:10C720008A18BEE72B4B4C4ABBE73000390001F0BA
:10C7300057F942464B4602F0A3F802000B00404670
:10C74000494602F017FB03000A00AAE7434B9E424A
:10C750001ADC0022424B02F00DFB002206000F0003
:10C760003F4B2000290002F08BF80022374B01F0EC
:10C7700037F90B0002003900300001F05DFC0223A4
:10C78000804689469B46F7E60B00020035490020AB
:10C7900001F052FC0323804689469B46ECE60022CA
:10C7A0002A4B02F0E7FA002206000F00274B200078
:10C7B000290001F015F90B0002003900300001F0EA
:10C7C0003BFC0123804689469B46D5E6FFFF0F448C
:10C7D0000000F07F182D4454FB21F93FFFFFDB3FA1
:10C7E000FFFF1F3E11DA22E33AAD903FEB0D7624B6
:10C7F0004B7BA93F513DD0A0660DB13F6E204CC58B
:10C80000CD45B73FFF8300922449C23F0D55555592
:10C810005555D53F2F6C6A2C44B4A2BF9AFDDE5209
:10C820002DDEAD3F6D9A74AFF2B0B33F711623FEAB
:10C83000C671BC3FC4EB98999999C93F581602003C
:10C84000381602009C7500883CE4377E0000F03FFB
:10C85000FFFFF23FFFFFE53FFB21F9BFFF7F0340F2
:10C860000000F83F0000F0BF0020704700200149A1
:10C870007047C0460000F87F002243088B4274D303
:10C8800003098B425FD3030A8B4244D3030B8B42D1
:10C8900028D3030C8B420DD3FF22090212BA030CDA
:10C8A0008B4202D31212090265D0030B8B4219D3BB
:10C8B00000E0090AC30B8B4201D3CB03C01A5241DB
:10C8C000830B8B4201D38B03C01A5241430B8B4223
:10C8D00001D34B03C01A5241030B8B4201D30B030C
:10C8E000C01A5241C30A8B4201D3CB02C01A524133
:10C8F000830A8B4201D38B02C01A5241430A8B42F6
:10C9000001D34B02C01A5241030A8B4201D30B02DE
:10C91000C01A5241CDD2C3098B4201D3CB01C01AF8
:10C92000524183098B4201D38B01C01A5241430902
:10C930008B4201D34B01C01A524103098B4201D3F0
:10C940000B01C01A5241C3088B4201D3CB00C01A5D
:10C95000524183088B4201D38B00C01A52414308D5
:10C960008B4201D34B00C01A5241411A00D20146FA
:10C97000524110467047FFE701B5002000F0F0F883
:10C9800002BDC0460029F7D076E7704703460B4347
:10C990007FD4002243088B4274D303098B425FD3B8
:10C9A000030A8B4244D3030B8B4228D3030C8B42E4
:10C9B0000DD3FF22090212BA030C8B4202D31212CA
:10C9C000090265D0030B8B4219D300E0090AC30B9F
:10C9D0008B4201D3CB03C01A5241830B8B4201D34C
:10C9E0008B03C01A5241430B8B4201D34B03C01A35
:10C9F0005241030B8B4201D30B03C01A5241C30AAD
:10CA00008B4201D3CB02C01A5241830A8B4201D31D
:10CA10008B02C01A5241430A8B4201D34B02C01A07
:10CA20005241030A8B4201D30B02C01A5241CDD2AC
:10CA3000C3098B4201D3CB01C01A524183098B42F7
:10CA400001D38B01C01A524143098B4201D34B01E0
:10CA5000C01A524103098B4201D30B01C01A524143
:10CA6000C3088B4201D3CB00C01A524183088B42CA
:10CA700001D38B00C01A524143088B4201D34B00B3
:10CA8000C01A5241411A00D2014652411046704725
:10CA90005DE0CA0F00D04942031000D3404253402A
:10CAA00000229C4603098B422DD3030A8B4212D3EA
:10CAB000FC22890112BA030A8B420CD3890192111C
:10CAC0008B4208D3890192118B4204D389013AD059
:10CAD000921100E08909C3098B4201D3CB01C01A2E
:10CAE000524183098B4201D38B01C01A5241430941
:10CAF0008B4201D34B01C01A524103098B4201D32F
:10CB00000B01C01A5241C3088B4201D3CB00C01A9B
:10CB1000524183088B4201D38B00C01A5241D9D2B3
:10CB200043088B4201D34B00C01A5241411A00D234
:10CB30000146634652415B10104601D34042002B30
:10CB400000D54942704763465B1000D3404201B5AF
:10CB5000002000F005F802BD0029F8D016E7704764
:10CB60007047C0468446101C62468C46191C6346BA
:10CB700000E0C0461FB501F019FE002801D40021D5
:10CB8000C8421FBD10B501F06DFD4042013010BD1F
:10CB900010B501F00BFE002801DB002010BD0120C4
:10CBA00010BDC04610B501F001FE002801DD0020D7
:10CBB00010BD012010BDC04610B501F093FD002846
:10CBC00001DC002010BD012010BDC04610B501F0F1
:10CBD00089FD002801DA002010BD012010BDC046EB
:10CBE0008446081C6146FFE71FB500F073FB002870
:10CBF00001D40021C8421FBD10B500F0FFFA404229
:10CC0000013010BD10B500F065FB002801DB0020ED
:10CC100010BD012010BDC04610B500F05BFB002820
:10CC200001DD002010BD012010BDC04610B500F090
:10CC30000DFB002801DC002010BD012010BDC04606
:10CC400010B500F003FB002801DA002010BD012020
:10CC500010BDC046F0B54F464646C0B41604360C6B
:10CC60009946330005042C0C070C150C63437E43D6
:10CC70006F4365431C0CAD1964199C46A64203D949
:10CC800080235B02984647446346250CEF191D0438
:10CC90004B464A4343432D0C240464199918C9197F
:10CCA00020000CBC90469946F0BDC0469E2110B5B0
:10CCB000C905041CFFF7C4FF002803D1201C00F0A5
:10CCC000E7FD10BD9E21201CC90500F05BFC00F0B3
:10CCD000DFFD80231B069C466044F2E7F8B54A025C
:10CCE000430244004E00C50F240E28009B09360E57
:10CCF000C90F92098D4259D0A01B002800DC8DE09D
:10CD0000002E1AD1002A00D079E05A0704D00F2251
:10CD10001A40042A00D004335A0138D50134FF2CBC
:10CD200000D189E028009B015B0AE4B25B02E405C4
:10CD30005B0A2343C0071843F8BDFF2CE5D08021D0
:10CD4000C9040A431B2800DD89E016002021C640E3
:10CD5000081A8240511E8A4132439B1A5A0114D547
:10CD60009B019E09300002F003FC05388640844296
:10CD700065DC041B330020200134E340041BA64083
:10CD8000721E964100243343BFE75A07BFD1DF0824
:10CD90002800FF2C2FD1002F00D187E08022D20362
:10CDA00013003B435B025B0AFF24BFE7A11B002982
:10CDB00049DD002E29D0FF2CA7D08026F60432436F
:10CDC0001B2900DD8DE017002026CF40711A8A4014
:10CDD000511E8A413A439B185A01D6D50134FF2C83
:10CDE00064D0012276491A405B080B4013438CE75C
:10CDF000031ECAD100207B025B0AE4B296E7013829
:10CE00000028AAD0FF2C9DD17FE7002A00D17CE723
:10CE100001390029DFD0FF2CD2D176E7002820D1BC
:10CE2000601CC0B2012853DD80279E1AFF043740E2
:10CE30002FD0D61A0D0095E72800002376E7614B26
:10CE4000241A334061E700294DD1611CCEB2012E76
:10CE50002FDDFF292AD09B185B080C0055E7012223
:10CE60007BE7002C1BD1002B5BD0C04300280CD0EB
:10CE7000FF2E7ED01B2800DD92E01D002024C5403F
:10CE8000201A8340581E83412B43D31A34000D00CF
:10CE900064E7002E00D065E700200024ABE7FF2EFA
:10CEA00067D08024E40440422343E3E7FF240023C7
:10CEB0003CE7002C61D1002B7ED0002A00D124E772
:10CEC0009B185A0100D460E73E4A0C0013401CE74F
:10CED000002C1ED1002B2FD1002A66D013000D008C
:10CEE00013E7012277E7002C1FD1002B5AD0C9434A
:10CEF00000290BD0FF2E50D01B295FDC1F002024FF
:10CF0000CF40611A8B40591E8B413B439B18340024
:10CF100062E7002B1CD1002A4AD013000D00FF2429
:10CF2000F3E6130034000D00EFE6FF2E35D0802429
:10CF3000E40449422343DFE7002A00D1E5E68027E5
:10CF4000981AFF04074000D152E7D31A0D00DCE61F
:10CF5000FF24002A00D1D8E68020DB08C00303426A
:10CF600004D0D208024201D113000D00DB00FF24DF
:10CF7000CBE61300FF240D00C7E6002B0DD0FF24E5
:10CF8000002A00D1C1E68021DB08C9030B42EDD0A5
:10CF9000D2080A42EAD11300E8E71300FF24B4E6FE
:10CFA000012372E713003400AFE60027002022E7D8
:10CFB00080270020FF03F1E61300A6E60123A5E782
:10CFC000FFFFFF7DFFFFFFFBF0B5564644465F467F
:10CFD0004D46F0B444024600C70F83B08846650A48
:10CFE000360EBA463DD0FF2E22D00023EC0080251D
:10CFF00099469B46ED0425437F3E43465C0258001C
:10D00000DB0F640A000E984636D0FF2830D080230C
:10D010000021E400DB041C437F38301A01904846AD
:10D0200042460843724E800030587A4013008746CB
:10D03000002D44D108239946063B9B46DDE701229B
:10D04000FF2000241A406402C305640AD2071C436F
:10D050001443200003B03CBC90469946A246AB4620
:10D06000F0BD002D20D104239946033B9B46C4E725
:10D07000002C17D1022102E0002C0AD10121321A22
:10D0800001924A4643460A435A48920082587B40DE
:10D090009746200002F06CFA431F76309C404042D5
:10D0A0000021BAE70321B8E7280002F061FA431F24
:10D0B0009D4000237630464299469B469DE70C23CF
:10D0C0009946093B9B4698E780240022E403FF2011
:10D0D000B9E70024C2468B465A465346022AAED0D0
:10D0E000032A7DD0012A31D1012200201A400024D8
:10D0F000A9E70122101A1B2856DD1A40002000243F
:10D10000A1E78023DB031D424BD18023DB032B43AC
:10D110005C02640A3A00FF2095E76D0160018542D8
:10D1200030D2019A0024013A01921B2201272900E2
:10D1300064006D00002901DBA84201D82D1A3C4390
:10D14000013A002AF3D16A1E95412C4301987F30A1
:10D150000028CEDD620704D00F222240042A00D02E
:10D160000434220103D5244A019814408030FE285B
:10D1700000DD64E70122A401640AC0B21A4062E73C
:10D180002C00A9E72D1A1A220124CFE76B02BCD587
:10D1900000248023DB031C436402640A4246FF2010
:10D1A00051E71C42B3D1F4E721002022C140101AFC
:10D1B0008440621E94410C43620704D00F22224037
:10D1C000042A00D00434620104D5012201201A404F
:10D1D000002438E70122A401640A1A40002032E743
:10D1E0008023DB031C436402640A5246FF202AE7C3
:10D1F00078160200B8160200FFFFFFF7430270B571
:10D2000042004C005D0AC30F4802120E460A240E6B
:10D21000C90FFF2A0FD0FF2C11D00120A24200D04D
:10D2200070BDB542FCD18B420DD0002AF8D1280048
:10D23000431E9841F4E70120002DF1D1EBE70120D6
:10D24000002EEDD1E9E70020EAE7C0464302F0B541
:10D2500042005D0AC30F4802440A4800120E000E45
:10D26000C90FFF2A1FD0FF2822D0002A09D16E4201
:10D270006E4100280FD1002C0DD10020002D09D0C7
:10D2800005E0002801D1002C01D08B4213D0584278
:10D2900001231843F0BD002EF7D048424141012040
:10D2A00049420843F6E7002DDDD002204042F1E775
:10D2B000002CDAD0F9E78242E9DC04DBA542E6D8AB
:10D2C0000020A542E6D25842434101205B42184368
:10D2D000E0E7C0464302F0B542004C005E0AC30FCF
:10D2E0004802120E450A240EC90FFF2A17D0FF2C40
:10D2F00019D0002A0BD170427041002C17D00028A1
:10D3000007D048424141012049420843F0BD002C6A
:10D3100013D08B4214D0584201231843F6E7022061
:10D32000002EF3D1E3E70220002DEFD1E1E7002D3D
:10D33000E5D10020002EE9D0EDE7002DE9D1EAE7A4
:10D34000A242E8DC04DBAE42E5D80020AE42DDD2EA
:10D350005842434101205B421843D7E7F0B5574696
:10D360004E4645464300E0B446028846760A1F0E04
:10D37000C40F002F47D0FF2F25D0002380259A46C9
:10D380009946F600ED042E437F3F434642465D0238
:10D39000D20F5B006D0A1B0E904640D0FF2B39D098
:10D3A00080220020ED00D20415437F3BFB1842464B
:10D3B0005746591C62408C4607430F2F5CD86F4973
:10D3C000BF00C9598F46002E45D108239A46063B17
:10D3D0009946DAE7424602282DD0032800D1C3E05F
:10D3E000012800D0A2E0002500260240D4B2760237
:10D3F000ED05760A2E43E407264330001CBC904618
:10D400009946A246F0BD002E1AD104239A46033B4A
:10D410009946BAE72A00511E8A41901CC6E70120AE
:10D42000002DC3D0280002F0A3F8431F76309D40A2
:10D4300043420020BAE70124FF2514400026D6E726
:10D44000300002F095F8431F9E400023763047429B
:10D450009A46994699E70C239A46093B994694E7E0
:10D4600080260024F603FF25C1E735004846B2E7D1
:10D47000350022004846AEE72904090C0800370CA5
:10D480003604360C2C0C7943704367437443060C06
:10D4900064183619B14203D98021490288464744AD
:10D4A0000004000C310409188D01681E8541890EA5
:10D4B0002943350CED19AD010D43290104D5012394
:10D4C00069081D4063460D4319007F31002925DDA1
:10D4D000680704D00F202840042800D00435280114
:10D4E00003D5274980330D401900FE29A3DC012410
:10D4F000AD016E0A1440CDB279E78020C003064228
:10D5000007D0054205D128434602760A4446FF2546
:10D510006DE706437602760AFF2568E70124611A63
:10D520001B2905DD14400025002660E76346CBE794
:10D530002E002023CE40591A8D406B1E9D412E4354
:10D54000730704D00F233340042B00D0043673013B
:10D5500004D5012401251440002648E70124B60122
:10D56000760A1440002542E780260124F6032E4364
:10D570007602760A1440FF2539E7C046F816020005
:10D58000FFFFFFF7F8B54A024E0043024400240EA5
:10D59000C50F9B09360EC90F9209FF2E00D183E0FB
:10D5A00001204140A01BA9425CD0002800DC95E08E
:10D5B000002E1CD1002A00D081E05A0704D00F228F
:10D5C0001A40042A00D004335A013BD50134FF2C01
:10D5D00000D191E001209B015B0AE4B205405B02AF
:10D5E000E4055B0AED0723432B431800F8BDFF2C2D
:10D5F000E3D08021C9040A431B2800DD90E0160017
:10D600002021C640081A8240511E8A4132439B1A8B
:10D610005A0115D59B019E09300001F0A9FF05387C
:10D62000864084426CDC041B330020200134E3403C
:10D63000041BA640721E964100243343BDE70D0033
:10D640005A07BCD1DF0801231D40FF2C33D1002F26
:10D6500000D190E08022D20313003B435B025B0ABF
:10D66000FF24BCE700284FDD002E2ED0FF2CA4D0D5
:10D670008025ED042A431B2800DD97E016002025B5
:10D68000C640281A8240501E824132439B185A01DC
:10D69000D5D50134FF2C6DD001227B481A405B08A0
:10D6A000034013430D0088E7002A00D07AE777E7AC
:10D6B000031EC5D100257B025B0AE4B28FE7013867
:10D6C0000028A4D0FF2C97D177E7002A00D174E777
:10D6D00001380028DAD0FF2CCDD16EE7002821D107
:10D6E000601CC0B2012858DD80279E1AFF04374015
:10D6F0002FD0D61A0D008FE701231D4000236EE7BF
:10D70000624B241A334058E7002851D1601CC6B23E
:10D71000012E33DDFF282DD09B185B0804004CE759
:10D72000012274E7002C1AD0FF2E1FD08024E404BD
:10D73000404223431B2800DD96E01D002024C54005
:10D74000201A8340581E83412B43D31A34000D0006
:10D750005EE7002E00D05FE700250024ABE7002B3A
:10D7600044D0C0430028F0D0FF2EE3D11300FF24A3
:10D770000D0022E70D00FF24002330E7002C5DD1CF
:10D78000002B7DD0002A00D117E79B185A0100D446
:10D7900056E73E4A040013400FE7002C1ED1002B31
:10D7A0002FD1002A65D013000D0006E701226DE796
:10D7B000002C1FD1002B59D0C04300280BD0FF2EC6
:10D7C0004FD01B285EDC1D002024C540201A83405A
:10D7D000581E83412B439B18340058E7002B1CD163
:10D7E000002A49D013000D00FF24E6E613003400A0
:10D7F0000D00E2E6FF2E34D08024E40440422343AF
:10D80000DFE7002A00D1D8E68027981AFF040740F6
:10D8100000D14DE7D31A0D00CFE6FF24002A00D136
:10D82000CBE68020DB08C003034204D0D2080242CA
:10D8300001D113000D00DB00FF24BEE6002B10D049
:10D84000FF24002A00D1B8E68020DB08C003034291
:10D8500003D0D208024200D11300DB000D00FF24E8
:10D86000ABE61300FF24A8E601236EE713003400A3
:10D87000A3E6002700251EE780270025FF03E9E631
:10D8800013009AE60123A6E7FFFFFF7DFFFFFFFBE2
:10D890004302590A4300C20F1B0E00207E2B0EDDEF
:10D8A0009D2B0DDC802000040143952B0BDC962082
:10D8B000C31AD9400B005842002A00D11800704703
:10D8C000034BD018FBE7963B99400B00F3E7C046AB
:10D8D000FFFFFF7F70B5002830D0C317C5185D402B
:10D8E000C40F280001F044FE9E231B1A962B0DDC6A
:10D8F0009622D21A95406A02520AD8B25202C00544
:10D90000520AE40702432243100070BD992B19DC30
:10D910009922D21A9540124A2A40690704D00F2151
:10D920000D40042D00D00432510103D50C4B1A4098
:10D930009F231B1A9201520AD8B2DFE7002400206D
:10D940000022DBE705222E00121AB921D6402A0058
:10D95000C91A8A40551EAA4135001543DBE7C04667
:10D96000FFFFFFFB70B5041E28D001F001FE9E23CF
:10D970001B1A962B0ADC9622D21A94406202520A93
:10D98000D8B25202520AC005104370BD992B18DC60
:10D990009922D21A9440114A2240610704D00F21E3
:10D9A0000C40042C00D00432510103D50B4B1A401B
:10D9B0009F231B1A9201520AD8B2E2E700200022EC
:10D9C000DFE705222500121AB921D5402200C91A25
:10D9D0008A40541EA2412C001443DCE7FFFFFFFBEA
:10D9E000F8B556465F464D464446F0B40F00FD0F6D
:10D9F000AA4609037C002E005F00450F490A7F0DEF
:10DA00002943C5001803BC46400A570F640DDB0FBD
:10DA10003843D2009A4500D1AAE06646A61B002EE4
:10DA200000DCFFE06346002B39D10300134300D034
:10DA3000D9E06B0709D00F232B40042B05D02B1DF9
:10DA4000AB42AD416D4249191D000B0200D482E08A
:10DA5000CA4B01349C4200D1FEE00A005646C84B36
:10DA6000ED081A405007640552020543120B640D7D
:10DA7000002112030B0D1B056405120B1A436308EA
:10DA8000C04CF60714401C4364006408344328006B
:10DA900021003CBC90469946A246AB46F8BDB74B28
:10DAA0009C42C6D080231B041843382E00DDEBE0D7
:10DAB0001F2E00DD1EE120239B1B9C4603006746B2
:10DAC000BB40984613004746F3403B436746BA4085
:10DAD000571EBA4113430200F240EB1A9D42B64171
